:020000040800F2
:1000000000000220AD0C00081F0D0008310C000894
:10001000350C00084D0C0008650C000800000000BD
:10002000000000000000000000000000290D000892
:100030002B0D0008000000002D0D0008F9530008EA
:10004000330D0008350D0008370D0008390D000884
:100050003B0D00083D0D00083F0D0008410D000854
:10006000430D0008450D0008470D0008490D000824
:100070004B0D00084D0D00084F0D0008510D0008F4
:10008000530D0008DD5B0008570D0008590D0008EE
:100090005B0D00085D0D00085F0D0008610D000894
:1000A000630D0008650D0008670D0008690D000864
:1000B0006B0D00086D0D00086F0D0008710D000834
:1000C000730D0008750D0008770D0008790D000804
:1000D0007B0D00087D0D00087F0D0008810D0008D4
:1000E000830D0008850D0008870D0008890D0008A4
:1000F0008B0D00088D0D00088F0D0008D55B0008E2
:10010000930D0008950D0008970D0008990D000843
:100110009B0D00089D0D00089F0D0008A10D000813
:10012000C12B0008A50D0008A70D0008A90D0008A7
:10013000AB0D0008AD0D0008AF0D0008B10D0008B3
:10014000B30D0008B50D0008B70D0008B90D000883
:10015000BB0D0008BD0D0008BF0D0008C10D000853
:10016000C30D0008C50D0008C70D0008C90D000823
:10017000CB0D0008CD0D0008CF0D0008D10D0008F3
:10018000D30D0008D50D000810B5054C237833B900
:10019000044B13B10448AFF300800123237010BD5A
:1001A000C000002000000000EC69010808B5064B03
:1001B0001BB106480649AFF300800648036813B137
:1001C000054B03B1984708BD00000000EC69010829
:1001D000C4000020C000002000000000154B002BD0
:1001E00008BF134B9D46A3F5803A00218B460F466E
:1001F0001348144A121A12F071FD0F4B002B00D055
:1002000098470E4B002B00D0984700200021040097
:100210000D000D48002802D00C48AFF3008012F00A
:100220000FFD2000290000F027F812F097FC00BF16
:100230000000080000000220000000000000000094
:10024000C0000020A42F01200000000000000000DA
:1002500082B00190019B5B68184602B0704700BFF6
:1002600082B00190019B5B69002B14BF0023012326
:10027000DBB2184602B0704700B587B01C4803F0E7
:1002800013FA072304931B48012107F051FE0023B2
:10029000059323E0184B059A53F822301548194668
:1002A00007F0B6FD03468DF80F309DF80F3083F050
:1002B0000103DBB2002B0ED00F4B059A53F822300E
:1002C0001846FFF7C5FF0346009302200B493E2264
:1002D0000B4B05F005FE059B01330593059B062B93
:1002E000D8D9084803F0E0F9024807F0ABFDFEE773
:1002F000283E0108100A002004000020383E0108B2
:10030000483E0108683E010800B583B00190019B9A
:10031000054A1A60019B8433184600F071F8019B6E
:10032000184603B05DF804FB903E010800B583B0A9
:100330000190019B074A1A60019BA433184600F004
:1003400071F8019B1846FFF7DFFF019B184603B0C9
:100350005DF804FB2059010800B583B001900091BD
:10036000019B012B2FD1009A4FF6FF739A422AD19D
:10037000164804F0FDFF16489FED160A08F048FDE8
:1003800015489FED160A08F0A9F81548B1EE040AC1
:100390000AF0BCF81348B3EE040A08F035FB124823
:1003A000B3EE040A09F092FE104864210AF0FCFE44
:1003B0000E480F490F4A0BF00BFC0F480AF01AFBCE
:1003C0000E4807F0F9FC03B05DF804FBE0000020E4
:1003D0000001002000007A44F00400200000FA43ED
:1003E000100600205007002018080020C808002030
:1003F0002D0300080000002080090020100A0020C2
:1004000000B583B00190019B1B68002B04D0019BB9
:100410001B6818460BF0E7FB019B184603B05DF81C
:1004200004FB00BF00B583B00190019B1B68002B4B
:1004300004D0019B1B6818460BF0D5FB019B5B6841
:10044000002B04D0019B5B6818460BF0CCFB019B92
:10045000184603B05DF804FB00B583B00190019B22
:100460008433184600F014F80346002B09D1019B91
:100470001846FFF7F5FE034683F00103DBB2002BBD
:1004800001D0012300E00023184603B05DF804FB0F
:1004900082B00190019B1B69184602B0704700BFF3
:1004A00008B501204FF6FF71FFF756FF08BD00BFEA
:1004B00082B001900091019B012B0BD1009A4FF665
:1004C000FF739A4206D1DFED047AF1EE677A034BAF
:1004D000C3ED017A02B07047DEE6093A2000002041
:1004E00008B501204FF6FF71FFF7E2FF08BD00BF1E
:1004F00082B001908DF803108DF80220ADF8003025
:10050000019B9DF803201A70019B9DF802205A70F0
:10051000019BBDF800205A80019B029A5A60019904
:100520004FF000024FF00003C1E90223019B18467F
:1005300002B0704700B585B003900B468DF80B30C4
:10054000039A039B03F110019DF80B3000911046B4
:100550001946D0220323FFF7CBFF9DF80B20039908
:10056000034B43F82210039B184605B05DF804FBCB
:10057000582E012000B585B003900B468DF80B3046
:10058000039A039B03F110019DF80B300091104674
:100590001946CC220523FFF7ABFF9DF80B200399EA
:1005A000034B43F82210039B184605B05DF804FB8B
:1005B000582E012000B585B003900B468DF80B3006
:1005C000039A039B03F110019DF80B300091104634
:1005D0001946242240F2D173FFF78AFF9DF80B20C1
:1005E0000399044B43F82210039B184605B05DF8AD
:1005F00004FB00BF582E012000B585B003900B46C8
:100600008DF80B30039A039B03F110019DF80B301A
:100610000091104619460C220123FFF769FF9DF84F
:100620000B200399034B43F82210039B184605B097
:100630005DF804FB582E012000B585B003900B46F1
:100640008DF80B30039A039B03F110019DF80B30DA
:100650000091104619460C220123FFF749FF9DF82F
:100660000B200399034B43F82210039B184605B057
:100670005DF804FB582E012000B585B003900B46B1
:100680008DF80B30039A039B03F110019DF80B309A
:100690000091104619464C220123FFF729FF9DF8CF
:1006A0000B200399034B43F82210039B184605B017
:1006B0005DF804FB582E012000B585B003900B4671
:1006C0008DF80B30039A039B03F110019DF80B305A
:1006D00000911046194608220123FFF709FF9DF8F3
:1006E0000B200399034B43F82210039B184605B0D7
:1006F0005DF804FB582E012000B585B003900B4631
:100700008DF80B30039A039B03F110019DF80B3019
:1007100000911046194618220123FFF7E9FE9DF8C3
:100720000B200399034B43F82210039B184605B096
:100730005DF804FB582E012000B585B003900B46F0
:100740008DF80B30039A039B03F110019DF80B30D9
:1007500000911046194628220123FFF7C9FE9DF893
:100760000B200399034B43F82210039B184605B056
:100770005DF804FB582E012000B585B003900B46B0
:100780008DF80B30039A039B03F110019DF80B3099
:1007900000911046194618220123FFF7A9FE9DF883
:1007A0000B200399034B43F82210039B184605B016
:1007B0005DF804FB582E012000B585B003900B4670
:1007C0008DF80B30039A039B03F110019DF80B3059
:1007D0000091104619460C220123FFF789FE9DF86F
:1007E0000B200399034B43F82210039B184605B0D6
:1007F0005DF804FB582E012000B585B003900B4630
:100800008DF80B30039A039B03F110019DF80B3018
:1008100000911046194610220123FFF769FE9DF84A
:100820000B200399034B43F82210039B184605B095
:100830005DF804FB582E012000B585B003900B46EF
:100840008DF80B30039A039B03F110019DF80B30D8
:1008500000911046194604220123FFF749FE9DF836
:100860000B200399034B43F82210039B184605B055
:100870005DF804FB582E012000B585B003900B46AF
:100880008DF80B30039A039B03F110019DF80B3098
:100890000091104619461C220123FFF729FE9DF8FE
:1008A0000B200399034B43F82210039B184605B015
:1008B0005DF804FB582E012000B585B003900B466F
:1008C0008DF80B30039A039B03F110019DF80B3058
:1008D00000911046194603220123FFF709FE9DF8F7
:1008E0000B200399034B43F82210039B184605B0D5
:1008F0005DF804FB582E012000B585B003900B462F
:100900008DF80B30039A039B03F110019DF80B3017
:1009100000911046194601220123FFF7E9FD9DF8D9
:100920000B200399034B43F82210039B184605B094
:100930005DF804FB582E012000B585B003900B46EE
:100940008DF80B30039A039B03F110019DF80B30D7
:1009500000911046194608220123FFF7C9FD9DF8B2
:100960000B200399034B43F82210039B184605B054
:100970005DF804FB582E012000B585B003900B46AE
:100980008DF80B30039A039B03F110019DF80B3097
:1009900000911046194660220123FFF7A9FD9DF83A
:1009A0000B200399034B43F82210039B184605B014
:1009B0005DF804FB582E012000B585B003900B466E
:1009C0008DF80B30039A039B03F110019DF80B3057
:1009D0000091104619461C220823FFF789FD9DF857
:1009E0000B200399034B43F82210039B184605B0D4
:1009F0005DF804FB582E012000B585B003900B462E
:100A00008DF80B30039A039B03F110019DF80B3016
:100A100000911046194601220123FFF769FD9DF858
:100A20000B200399034B43F82210039B184605B093
:100A30005DF804FB582E012000B585B003900B46ED
:100A40008DF80B30039A039B03F110019DF80B30D6
:100A500000911046194654220123FFF749FD9DF8E5
:100A60000B200399034B43F82210039B184605B053
:100A70005DF804FB582E012000B583B00190009171
:100A8000019B012B58D1009A4FF6FF739A4253D124
:100A90002B480021FFF74EFD2A480121FFF76AFD90
:100AA00029480221FFF786FD28480321FFF7A4FD0E
:100AB00027480421FFF7C0FD26480521FFF7DCFD8C
:100AC00025480621FFF7F8FD24480721FFF714FE0B
:100AD00023480821FFF730FE22480921FFF74CFE8A
:100AE00021480A21FFF768FE20480B21FFF784FE0A
:100AF0001F480C21FFF7A0FE1E480D21FFF7BCFE8A
:100B00001D480E21FFF7D8FE1C480F21FFF7F4FE09
:100B10001B481021FFF710FF1A481121FFF72CFF87
:100B200019481221FFF748FF18481321FFF764FF07
:100B300017481421FFF780FF03B05DF804FB00BFE6
:100B4000600A0020E00C0020F0100020682A01203C
:100B5000882A0120A82A0120082B0120202B01200F
:100B6000482B0120802B0120A82B0120C82B01201D
:100B7000E82B0120002C0120302C0120482C0120E2
:100B8000602C0120782C0120E82C0120D82D012098
:100B9000F02D012008B501204FF6FF71FFF76CFF23
:100BA00008BD00BF82B0034600918DF807309DF963
:100BB0000730002B0CDA0C499DF8073003F00F03C7
:100BC000043B009AD2B21201D2B20B441A7609E069
:100BD00006499DF90730009AD2B21201D2B20B44F5
:100BE00083F8002302B0704700ED00E000E100E070
:100BF00008B50E4B0D4A526942F018025A616FF067
:100C00000B000521FFF7CEFF6FF00A000521FFF76B
:100C1000C9FF6FF009000521FFF7C4FF034B034A2A
:100C2000526A42F4E0225A6208BD00BF00ED00E0C3
:100C3000FEE700BF08B5022002492322024B05F05F
:100C40004FF908BDFC3E0108303F010808B50220FD
:100C500002492722024B05F043F908BDFC3E01087A
:100C60004C3F010808B5022002492B22024B05F037
:100C700037F908BDFC3E0108583F010800B583B0B4
:100C800001AB1846012105F089F801AB184605F0C3
:100C9000D3F80346002B01D001F0CEFFFFF7A8FFE9
:100CA0000023184603B05DF804FB00BF0D480E4951
:100CB000026800608A4204D10C48D0F800D0406835
:100CC00000470B490B4A0C4B9A42BEBF51F8040B2C
:100CD00042F8040BF8E7094880470948804709486B
:100CE00000470000F1FF0120EFBEADDE0000FF1F56
:100CF000F869010800000020C0000020E10D000894
:100D00007D0C0008DD0100083349344A002301E06E
:100D100041F8043B9142FBD3FFF7AEFAFEE7FEE752
:100D2000FEE7FEE7FEE7FEE7FEE7FEE7FEE7FEE79B
:100D3000FEE7FEE7FEE7FEE7FEE7FEE7FEE7FEE78B
:100D4000FEE7FEE7FEE7FEE7FEE7FEE7FEE7FEE77B
:100D5000FEE7FEE7FEE7FEE7FEE7FEE7FEE7FEE76B
:100D6000FEE7FEE7FEE7FEE7FEE7FEE7FEE7FEE75B
:100D7000FEE7FEE7FEE7FEE7FEE7FEE7FEE7FEE74B
:100D8000FEE7FEE7FEE7FEE7FEE7FEE7FEE7FEE73B
:100D9000FEE7FEE7FEE7FEE7FEE7FEE7FEE7FEE72B
:100DA000FEE7FEE7FEE7FEE7FEE7FEE7FEE7FEE71B
:100DB000FEE7FEE7FEE7FEE7FEE7FEE7FEE7FEE70B
:100DC000FEE7FEE7FEE7FEE7FEE7FEE7FEE7FEE7FB
:100DD000FEE7FEE7FEE70000C0000020A42F012090
:100DE00080B500AF154B154AD2F8882042F4700246
:100DF000C3F88820124B124A126842F001021A60AE
:100E00000F4B00229A600E4A0D4B1B6823F084732F
:100E100023F4803313600A4B0A4A5A60084B084A8D
:100E2000126822F480221A60054B0022DA6000F07A
:100E30000BF8024B4FF000629A6080BD00ED00E0BD
:100E4000003802401030002480B483B000AF00238B
:100E50007B6000233B60354B344A126842F4803299
:100E60001A60324B1B6803F400333B607B6801332C
:100E70007B603B68002B03D17B68B3F5A04FF0D1BA
:100E80002A4B1B6803F40033002B02D001233B6084
:100E900001E000233B603B68012B42D1234B234AF6
:100EA000126C42F080521A64214B214A126822F4DB
:100EB00040421A601D4B1D4A92689A601B4B1B4AA8
:100EC000926842F420429A60184B184A926842F4A1
:100ED000A0529A60154B174A5A60144B134A126875
:100EE00042F080721A6000BF104B1B6803F0007361
:100EF000002BF9D0104B40F204721A600B4B0B4AD6
:100F0000926822F003029A60084B084A926842F005
:100F100002029A6000BF054B9B6803F00C03082B8C
:100F2000F9D10C37BD465DF8047B704700380240AC
:100F30000070004008484006003C024000B585B003
:100F4000039002910192039B029A1A60039B019AFB
:100F50005A60039BFF221A72039B00225A72039B62
:100F600000229A72039B0022A3F83A21039B0022DD
:100F7000C3F83C21039B002283F84021039800F032
:100F800071F9039B184605B05DF804FB00B585B008
:100F90000190FE238DF80E3000238DF80C300023D5
:100FA0008DF80F30019B1B68002B06D1002065498E
:100FB0002022654B04F094FFC0E0019B1A6803AB4C
:100FC0001046194604F080FC0346002B00F0B68062
:100FD000019B1B7A5BB20133092B00F28B8001A2CB
:100FE00052F823F00D1000083710000837100008E1
:100FF0003710000837100008371000085910000893
:101000009D100008D5100008E51000089DF80C3070
:10101000FE2B0FD1019BB3F83A315A1C91B2019AC1
:10102000A2F83A119DF80C2001990B445A730198CB
:1010300000F026F962E0019BB3F83A315A1C91B2F4
:10104000019AA2F83A119DF80C2001990B445A73A9
:10105000019800F015F951E09DF80C20019B5A729F
:10106000019BB3F83A315A1C91B2019AA2F83A1195
:101070009DF80C2001990B445A73019BB3F83A3147
:10108000DAB2019B9A72019800F0FAF8019B5B7A40
:10109000002B02D1019800F0F3F82FE0019BB3F888
:1010A0003A315A1C91B2019AA2F83A119DF80C20DB
:1010B00001990B445A73019BB3F83A311A46019BCC
:1010C0009B7AD21A019B5B7A9A4202DB019800F06C
:1010D000D7F813E09DF80C20019BDA72019800F01C
:1010E000CFF80BE09DF80C20019B1A7301238DF8BB
:1010F0000F3003E0019800F0B5F800BF9DF80F3005
:10110000002B1BD000238DF80F30019B9B7B8DF8AB
:101110000D309DF80D30002B05D0019800F016F829
:101120000346002B01D0012300E00023002B02D056
:10113000019800F04FF8019800F094F805B05DF8C0
:1011400004FB00BFA03F0108CC3F010800B587B0F9
:101150000390039BDB7A1A46039B1B7B1B029BB20B
:101160001344ADF81630039B03F10D02039BB3F853
:101170003A31104619464FF6FF7202F063FA034601
:10118000ADF81430BDF81420BDF816309A4214BFE3
:10119000002301238DF813309DF8133083F00103F1
:1011A000DBB2002B0BD0BDF81620BDF81430009236
:1011B0000193002005496F22054B04F091FE9DF834
:1011C0001330184607B05DF804FB00BFA03F0108CC
:1011D000EC3F010800B587B00190019B9B7B8DF827
:1011E0001630019BDB7B8DF81530019B1B7C1A466A
:1011F000019B5B7C1B029BB21344ADF81230019B38
:101200009B7C8DF81730019B9B7A0833019A13441D
:10121000053303939DF81630002B05D1019B93F8FD
:10122000403101338DF81730019B5B68002B09D0EA
:10123000019B5B689DF81510BDF812200846114609
:10124000039A9847019BD3F83C315A1C019BC3F881
:101250003C21019B9DF8172083F8402107B05DF8E1
:1012600004FB00BF82B00190019B00229A72019B97
:101270000022A3F83A21019BFF221A7202B07047A4
:1012800082B00190019B1B7ADBB20133DAB2019B81
:101290001A7202B0704700BF82B00190019B5B7868
:1012A000184602B0704700BF00B589B003900291A4
:1012B0001346ADF80630BDF80630002B05D0039B71
:1012C0005B88BDF806209A4201D9002322E0BDF8D0
:1012D0000630013B039A527802FB03F30793039B0A
:1012E0005B681A46079B134406930C4806F00EFEF3
:1012F00003468DF81730069A039B5B7802981146D7
:101300001A4611F0E2FC9DF817300448194606F021
:101310000FFE0123184609B05DF804FB100A0020F7
:1013200082B001900091019B009A1A60019B0022FB
:101330005A60019B00229A60019B00221A73019B54
:10134000184602B0704700BF00B58BB005900393FC
:101350000B468DF813301346ADF81030059B1B6813
:10136000002B05D102205B4914225B4B04F0B8FD31
:101370009DF81330142B11D9059B9B685A1C059BB3
:101380009A609DF813300093142301930020514973
:101390001922524B04F0A4FD012397E09DF813207D
:1013A0004F4B53F8223009930998FFF775FF034616
:1013B0008DF823300723ADF82030059BFE225A73A9
:1013C000059B01229A73059B9DF81320DA73BDF8E3
:1013D0001030DAB2059B1A74BDF810301B12DAB265
:1013E000059B5A74059B1A7B059B9A74059B9DF877
:1013F0002320DA74039B002B0AD1059B03F114020E
:10140000BDF81030099811461A46FFF74DFF09E064
:10141000059B03F114029DF82330104603991A46E8
:1014200011F053FC9DF823309BB20733ADF81E300A
:10143000059B03F10D02BDF81E30104619464FF60C
:10144000FF7202F0FFF80346ADF81C300223ADF83E
:101450001A30BDF81E30BDF81C20D2B205990B44DD
:101460005A73BDF81E300133BDF81C201212D2B2DF
:1014700005990B445A739DF823309BB20933ADF89C
:101480001830059B1968059B03F10D02BDF8183053
:10149000084611461A4604F027FA034683F0010372
:1014A000DBB2002B06D0059B9B685A1C059B9A60FB
:1014B00002230BE0059B5B685A1C059B5A60059B49
:1014C0001B7B0133DAB2059B1A73002318460BB05D
:1014D0005DF804FB0C400108384001084840010851
:1014E000582E012080B485B000AF78600023FB73D4
:1014F0000023BB730F237B737B68DB78002B37D013
:10150000254BDB68DB4303F4E0631B0AFB73FB7BC7
:10151000C3F10403BB737A7BFB7B42FA03F37B7357
:101520007B685B781A46BB7B02FA03F3FB737B682C
:101530009A787B7B1340DAB2FB7B1343FB73FB7B14
:101540001B01FB73154A7B681B781344FA7B83F8F5
:101550000023124B7A6812785209D2B2796809785E
:1015600001F01F01012000FA01F143F822100EE002
:101570000A4B7A6812785209D2B27968097801F078
:101580001F01012000FA01F1203243F82210143724
:10159000BD465DF8047B704700ED00E000E100E02F
:1015A00080B485B000AF786039600023FB60002311
:1015B000FB727B685B68FB60FB6823F0407323F47D
:1015C0008073FB603B681B791A023B681B681343FE
:1015D000FA681343FB607B68FA685A607B689B6813
:1015E000FB60FA68174B1340FB603B681A693B6865
:1015F000DB681A433B689B681A433B685B795B0076
:101600001343FA681343FB607B68FA689A607B684F
:10161000DB6AFB60FB6823F47003FB603B681B7DA7
:10162000013BDAB2FB7A1343FB72FB7A1B05FA68C3
:101630001343FB607B68FA68DA621437BD465DF8D5
:10164000047B7047FDF7FFC080B485B000AF7860C1
:101650000023FB600E4B5B68FB60FA680D4B134088
:10166000FB607B681A687B685B681A437B689B68D1
:101670001A437B68DB681343FA681343FB60044B2F
:10168000FA685A601437BD465DF8047B704700BFA6
:1016900000230140E030FCFF80B483B000AF7860ED
:1016A0000B46FB70FB78002B06D07B689B6843F0F1
:1016B00001027B689A6005E07B689B6823F0010269
:1016C0007B689A600C37BD465DF8047B704700BFAD
:1016D00080B485B000AF7860F970BA707B70002379
:1016E000FB600023BB60FB78092B23D97B68DB6898
:1016F000FB60FB78A3F10A0213465B001344072248
:1017000002FA03F3BB60BB68DB43FA681340FB607B
:101710007978FB78A3F10A0213465B00134401FABF
:1017200003F3BB60FA68BB681343FB607B68FA682D
:10173000DA601EE07B681B69FB60FA7813465B0089
:101740001344072202FA03F3BB60BB68DB43FA6869
:101750001340FB607978FA7813465B00134401FA72
:1017600003F3BB60FA68BB681343FB607B68FA68ED
:101770001A61BB78062B21D87B685B6BFB60BB785A
:101780005A1E13469B0013441F2202FA03F3BB6048
:10179000BB68DB43FA681340FB60F978BB785A1EDC
:1017A00013469B00134401FA03F3BB60FA68BB685D
:1017B0001343FB607B68FA685A6347E0BB780C2BE5
:1017C00021D87B681B6BFB60BB78DA1F13469B003C
:1017D00013441F2202FA03F3BB60BB68DB43FA68C1
:1017E0001340FB60F978BB78DA1F13469B00134463
:1017F00001FA03F3BB60FA68BB681343FB607B68C4
:10180000FA681A6322E07B68DB6AFB60BB78A3F1AD
:101810000D0213469B0013441F2202FA03F3BB6020
:10182000BB68DB43FA681340FB60F978BB78A3F12F
:101830000D0213469B00134401FA03F3BB60FA68E0
:10184000BB681343FB607B68FA68DA621437BD46F5
:101850005DF8047B704700BF80B483B000AF786050
:101860000B46FB70FB78002B06D07B689B6843F42B
:1018700080727B689A6005E07B689B6823F48072C5
:101880007B689A600C37BD465DF8047B704700BFEB
:1018900080B483B000AF78600B46FB70FB78002B00
:1018A00006D07B689B6843F400727B689A6005E011
:1018B0007B689B6823F400727B689A600C37BD4696
:1018C0005DF8047B704700BF80B483B000AF7860E0
:1018D0007B681B6823F001027B681A607B6800222A
:1018E0001A607B6800225A607B6800229A607B68DD
:1018F0000022DA607B6800221A617B6821225A612B
:101900007A68454B9A4203D1444B3D229A607EE06F
:101910007A68434B9A4204D1404B4FF474629A6008
:1019200075E07A683F4B9A4204D13C4B4FF47412F5
:101930009A606CE07A683C4B9A4204D1374B4FF086
:1019400074629A6063E07A68384B9A4203D1334BF1
:10195000374ADA605BE07A68364B9A4203D12F4B04
:10196000354ADA6053E07A68344B9A4203D12B4B04
:10197000334ADA604BE07A68324B9A4204D1274B03
:101980004FF03D52DA6042E07A682F4B9A4203D121
:101990002E4B3D229A603AE07A682D4B9A4204D150
:1019A0002A4B4FF474629A6031E07A68294B9A426C
:1019B00004D1264B4FF474129A6028E07A68264BC3
:1019C0009A4204D1214B4FF074629A601FE07A680A
:1019D000224B9A4203D11D4B154ADA6017E07A6810
:1019E0001F4B9A4203D1194B134ADA600FE07A6811
:1019F0001C4B9A4203D1154B114ADA6007E07A6812
:101A0000194B9A4203D1114B4FF03D52DA600C371B
:101A1000BD465DF8047B70471060024000600240E4
:101A200028600240406002405860024070600240FE
:101A30003D00002088600240400F0020A06002406E
:101A400000003D20B8600240106402400064024083
:101A500028640240406402405864024070640240BE
:101A600088640240A0640240B864024080B485B03B
:101A700000AF786039600023FB607B681B68FB6007
:101A8000FA68244B1340FB603B681A683B68DB68CC
:101A90001A433B685B691A433B689B691A433B687E
:101AA000DB691A433B681B6A1A433B685B6A1A434B
:101AB0003B689B6A1A433B685B6B1A433B689B6BB2
:101AC0001343FA681343FB607B68FA681A607B680B
:101AD0005B69FB60FB6823F00703FB603B68DA6A25
:101AE0003B681B6B1343FA681343FB607B68FA681F
:101AF0005A613B681A697B685A603B685A687B6820
:101B00009A603B689A687B68DA601437BD465DF876
:101B1000047B70473F801CF080B483B000AF7860D6
:101B20000B46FB70FB78002B06D07B681B6843F0EC
:101B300001027B681A6005E07B681B6823F00102E4
:101B40007B681A600C37BD465DF8047B704700BFA8
:101B500080B485B000AFF860B9601346FB71BB6814
:101B600003F08003002B0FD0FB79002B06D0FB681D
:101B70005B6943F08002FB685A6105E0FB685B69C2
:101B800023F08002FB685A61BB68802B14D0FB797C
:101B9000002B08D0FB681A68BB6803F01E031A43C9
:101BA000FB681A6008E0FB681A68BB6803F01E0354
:101BB000DB431A40FB681A601437BD465DF8047BAE
:101BC000704700BF80B487B000AF786039600023F1
:101BD000FB750023FB600023BB607A68224B9A42AE
:101BE00002D8224B3B6101E0214B3B613B6823F073
:101BF000F02323F0C313002B0AD03B68DB0A03F069
:101C00001E03FB607B681A68FB681340BB6004E03E
:101C10007B685B6903F08003BB603B6803F00053A3
:101C2000002B03D03B695B68FB6002E03B691B68EB
:101C3000FB60FB6823F0F02323F08213FB60FA685B
:101C40003B681340002B05D0BB68002B02D001235A
:101C5000FB7501E00023FB75FB7D18461C37BD4674
:101C60005DF8047B704700BF0F64024000600240D3
:101C70000064024080B485B000AF786039607A6853
:101C8000104B9A4202D8104BFB6001E00F4BFB60F7
:101C90003B6803F00053002B07D03B6823F0F02390
:101CA00023F08213FA68D36006E03B6823F0F02348
:101CB00023F08213FA6893601437BD465DF8047B05
:101CC000704700BF0F6402400060024000640240A1
:101CD00080B487B000AF7860396000237B61002357
:101CE0003B610023FB6000237B6176E07B6901227E
:101CF00002FA03F33B613B681A683B691340FB60DF
:101D0000FA683B699A4265D17B681A687B695B0017
:101D1000032101FA03F3DB431A407B681A607B68F6
:101D20001A683B681B7919467B695B0001FA03F36B
:101D30001A437B681A603B681B79012B03D03B6810
:101D40001B79022B2ED17B689A687B695B0003218B
:101D500001FA03F3DB431A407B689A607B689A6858
:101D60003B685B7919467B695B0001FA03F31A4310
:101D70007B689A607B685A687B699BB2012101FA93
:101D800003F3DB431A407B685A607B685A683B6800
:101D90009B7919467B699BB201FA03F39BB21A4304
:101DA0007B685A607B68DA687B699BB25B000321C1
:101DB00001FA03F3DB431A407B68DA607B68DA6878
:101DC0003B68DB7919467B695B0001FA03F31A4330
:101DD0007B68DA607B6901337B617B690F2B85D976
:101DE0001C37BD465DF8047B704700BF80B485B0EA
:101DF00000AF786013460A467A807B700023FB6050
:101E00000023BB607A787B8803F007039B0002FA0B
:101E100003F3FB607B88DB089BB21A467B88DB08F8
:101E20009BB219467B68083153F821107B8803F078
:101E300007039B000F2000FA03F3DB4319407B6884
:101E4000083243F822107B88DB089BB21A467B6875
:101E5000083253F82220FB681343BB607B88DB0801
:101E60009BB21A467B680832B96843F822101437CF
:101E7000BD465DF8047B704780B489B000AF7860E0
:101E80000023BB6100237B610023FB6102233B61D4
:101E90000023FB600223BB60484B9B6803F00C03EC
:101EA000BB61BB69042B07D0082B09D0002B3FD1A5
:101EB0007B68434A1A603FE07B68424A1A603BE015
:101EC0003E4B5B6803F480039B0DFB603B4B5B6800
:101ED00003F03F03BB60FB68002B0DD0394ABB68A1
:101EE000B2FBF3F2354B596847F6C0730B409B09C0
:101EF00003FB02F3FB610CE0314ABB68B2FBF3F277
:101F00002E4B596847F6C0730B409B0903FB02F345
:101F1000FB612A4B5B6803F440331B0C01335B000D
:101F20003B61FA693B69B2FBF3F27B681A6003E03C
:101F30007B68234A1A6000BF204B9B6803F0F003C4
:101F4000BB61BB691B09BB611F4ABB6913441B789A
:101F5000DBB27B617B681A687B69DA407B685A6018
:101F6000164B9B6803F4E053BB61BB699B0ABB61E2
:101F7000154ABB6913441B78DBB27B617B685A68E6
:101F80007B69DA407B689A600C4B9B6803F4604382
:101F9000BB61BB695B0BBB610B4ABB6913441B781C
:101FA000DBB27B617B685A687B69DA407B68DA6008
:101FB0002437BD465DF8047B704700BF00380240FF
:101FC0000024F40000127A002800002080B483B0BE
:101FD00000AF78600B46FB70FB78002B06D0094BF6
:101FE000084A116B7A680A431A6306E0054B054AF2
:101FF000116B7A68D2430A401A630C37BD465DF80C
:10200000047B70470038024080B483B000AF786032
:102010000B46FB70FB78002B06D0094B084A116C6D
:102020007A680A431A6406E0054B054A116C7A681F
:10203000D2430A401A640C37BD465DF8047B7047F2
:102040000038024080B483B000AF78600B46FB706C
:10205000FB78002B06D0094B084A516C7A680A437A
:102060005A6406E0054B054A516C7A68D2430A402F
:102070005A640C37BD465DF8047B70470038024057
:1020800080B483B000AF78600B46FB70FB78002B08
:1020900006D0094B084A116A7A680A431A6206E0B8
:1020A000054B054A116A7A68D2430A401A620C3716
:1020B000BD465DF8047B70470038024080B483B0B1
:1020C00000AF78600B46FB70FB78002B06D0094B05
:1020D000084A516A7A680A435A6206E0054B054A83
:1020E000516A7A68D2430A405A620C37BD465DF89D
:1020F000047B70470038024080B582B000AF786042
:102100007A682D4B9A420AD14FF480500121FFF793
:10211000D5FF4FF480500021FFF7D0FF49E07A68E7
:10212000264B9A420AD14FF480400121FFF7A8FFC5
:102130004FF480400021FFF7A3FF3AE07A68204B7C
:102140009A420AD14FF400400121FFF799FF4FF462
:1021500000400021FFF794FF2BE07A68194B9A4268
:102160000AD14FF400500121FFF7A8FF4FF40050AF
:102170000021FFF7A3FF1CE07A68134B9A420AD1B3
:102180004FF480100121FFF799FF4FF480100021D8
:10219000FFF794FF0DE07A680C4B9A4209D14FF497
:1021A00000100121FFF78AFF4FF400100021FFF714
:1021B00085FF0837BD4680BD003001400038004033
:1021C000003C0040003401400050014000540140F8
:1021D00080B485B000AF786039600023FB817B68F4
:1021E0001B88FB81FB8903F44153FB813B681A8800
:1021F0003B685B8813439AB23B689B8813439AB24F
:102200003B68DB8813439AB23B681B8913439AB23D
:102210003B685B8913439AB23B689B8913439AB22C
:102220003B68DB8913439AB2FB891343FB817B68CC
:10223000FA891A807B689B8B9BB223F400639AB265
:102240007B689A833B681A8A7B681A821437BD467A
:102250005DF8047B704700BF80B483B000AF786046
:102260000B46FB70FB78002B08D07B681B889BB269
:1022700043F040039AB27B681A8007E07B681B88B2
:102280009BB223F040039AB27B681A800C37BD469C
:102290005DF8047B704700BF80B483B000AF786006
:1022A0007B689B899BB218460C37BD465DF8047B62
:1022B000704700BF80B483B000AF78600B467B806E
:1022C0007B687A889A810C37BD465DF8047B70473D
:1022D00080B485B000AF78600B467B800023FB7331
:1022E0007B681B899AB27B8813409BB2002B02D07B
:1022F0000123FB7301E00023FB73FB7B18461437BB
:10230000BD465DF8047B704780B485B000AF78604F
:1023100039600023FB817B681B88FB817A68284B2E
:102320009A4213D07A68274B9A420FD07B68B3F158
:10233000804F0BD07A68244B9A4207D07A68234B9F
:102340009A4203D07A68224B9A4208D1FB8923F043
:102350007003FB813B685A88FB891343FB817A68D1
:102360001C4B9A420CD07A681B4B9A4208D0FB89CE
:1023700023F44073FB813B681A89FB891343FB817B
:102380007B68FA891A803B685A687B68DA623B6826
:102390001A887B681A857A68094B9A4203D07A6852
:1023A000084B9A4204D13B689B7A1A467B681A868E
:1023B0007B6801229A821437BD465DF8047B704722
:1023C00000000140000401400004004000080040FB
:1023D000000C0040001000400014004080B483B0A6
:1023E00000AF786039607B683A68DA620C37BD46C6
:1023F0005DF8047B704700BF80B483B000AF7860A5
:102400000B46FB70FB78002B08D07B681B889BB2C7
:1024100043F080039AB27B681A8007E07B681B88D0
:102420009BB223F080039AB27B681A800C37BD46BA
:102430005DF8047B704700BF80B483B000AF786064
:102440000B46FB70FB78002B08D07B681B889BB287
:1024500043F001039AB27B681A8007E07B681B880F
:102460009BB223F001039AB27B681A800C37BD46F9
:102470005DF8047B704700BF80B485B000AF786022
:10248000396000237B810023FB810023BB817B68B3
:102490001B8C9BB223F001039AB27B681A847B6881
:1024A0001B8CFB817B689B88BB817B681B8B7B8142
:1024B0007B8923F070037B817B8923F003037B817D
:1024C0003B681A887B8913437B81FB8923F00203D5
:1024D000FB813B689A89FB891343FB813B685A88DF
:1024E000FB891343FB817A681E4B9A4203D07A68BA
:1024F0001D4B9A4223D1FB8923F00803FB813B68E3
:10250000DA89FB891343FB81FB8923F00403FB81F8
:102510003B689A88FB891343FB81BB8923F4807352
:10252000BB81BB8923F40073BB813B681A8ABB89DA
:102530001343BB813B685A8ABB891343BB817B68C9
:10254000BA899A807B687A891A833B689A687B6823
:102550005A637B68FA891A841437BD465DF8047B98
:10256000704700BF000001400004014080B485B006
:1025700000AF7860396000237B810023FB8100235A
:10258000BB817B681B8C9BB223F010039AB27B68E3
:102590001A847B681B8CFB817B689B88BB817B6872
:1025A0001B8B7B817B8923F4E0437B817B8923F434
:1025B00040737B813B681B881B029AB27B89134363
:1025C0007B81FB8923F02003FB813B689B891B01F6
:1025D0009AB2FB891343FB813B685B881B019AB26B
:1025E000FB891343FB817A68224B9A4203D07A68B5
:1025F000214B9A422BD1FB8923F08003FB813B685E
:10260000DB891B019AB2FB891343FB81FB8923F011
:102610004003FB813B689B881B019AB2FB891343F3
:10262000FB81BB8923F48063BB81BB8923F40063F6
:10263000BB813B681B8A9B009AB2BB891343BB8159
:102640003B685B8A9B009AB2BB891343BB817B6862
:10265000BA899A807B687A891A833B689A687B6812
:102660009A637B68FA891A841437BD465DF8047B47
:10267000704700BF000001400004014080B485B0F5
:1026800000AF78600B467B800023FB817B681B8B4F
:10269000FB81FB8923F00803FB81FA897B881343C4
:1026A000FB817B68FA891A831437BD465DF8047B89
:1026B000704700BF80B485B000AF78600B467B8068
:1026C0000023FB817B681B8BFB81FB8923F4006368
:1026D000FB817B881B029AB2FB891343FB817B68D9
:1026E000FA891A831437BD465DF8047B704700BF32
:1026F00080B483B000AF786039603B681A883B686B
:102700005B8813439AB23B689B8813439AB23B6839
:10271000DB8813439AB23B681B8913439AB23B6828
:102720005B8913439AB23B689B8913439AB27B68D7
:10273000A3F844200C37BD465DF8047B704700BF0A
:1027400080B487B000AFF86079813A81FB800023C4
:10275000FB820023BB8200237B82FB681B89FB82F8
:10276000FB681B8BBB82FB681B8C7B82FB8A23F084
:102770000703FB82FA8A7B891343FB82BB8A23F41B
:10278000407323F00303BB82BB8A43F4807343F09E
:102790000103BB827B8A23F022037B82FB881B011F
:1027A0009AB23B8913439AB27B8A13437B82FB68BC
:1027B000FA8A1A81FB68BA8A1A83FB687A8A1A84B1
:1027C0001C37BD465DF8047B704700BF80B58AB0FA
:1027D00000AF7860396000237B6200233B620023F6
:1027E000FB610023BB617B681B8A9BB27B627B6AB7
:1027F00023F440537B623B68DB887A6A13437B6235
:102800007B6A9AB27B681A827B689B899BB27B62E7
:102810007B6A23F4B05323F00C037B623B689A88F5
:102820003B681B8913439AB23B685B8913439BB295
:102830007A6A13437B627B6A9AB27B689A817B686F
:102840009B8A9BB27B627B6A23F440737B623B680A
:102850009B897A6A13437B627B6A9AB27B689A820D
:1028600007F108031846FFF707FB7A68314B9A42D5
:1028700003D07A68304B9A4202D17B693B6201E017
:102880003B693B627B689B899BB29BB21BB2002B6E
:102890000CDA3A6A13469B0013449A001A443B68C8
:1028A0001B685B00B2FBF3F3FB610BE03A6A134673
:1028B0009B0013449A001A443B681B689B00B2FBC0
:1028C000F3F3FB61FA691D4BA3FB02135B091B01C8
:1028D0007B627B6A1B09642202FB03F3FA69D31A49
:1028E000BB617B689B899BB29BB21BB2002B0DDA4C
:1028F000BB69DB0003F13202104BA3FB02135B093F
:1029000003F007037A6A13437B620CE0BB691B0187
:1029100003F13202094BA3FB02135B0903F00F031F
:102920007A6A13437B627B6A9AB27B681A81283782
:10293000BD4680BD00100140001401401F85EB51D1
:1029400080B483B000AF78600B46FB70FB78002B3F
:1029500008D07B689B899BB243F400539AB27B6892
:102960009A8107E07B689B899BB223F400539AB25B
:102970007B689A810C37BD465DF8047B704700BFC9
:1029800080B483B000AF786013460A467A807B70CB
:102990007B78002B08D07B689B8A9AB27B88134394
:1029A0009AB27B689A8209E07B689B8A9AB27B889C
:1029B000DB439BB213409AB27B689A820C37BD46C8
:1029C0005DF8047B704700BF00B59FB001905E4B7F
:1029D0001D931D980121FFF7F9FA4FF48070012132
:1029E000FFF730FB00230293584B0393019B0493A2
:1029F0000023059309230693002307934FF4806374
:102A000008934FF4006309934FF400530A934FF473
:102A100080730B934FF400330C9300230D93032327
:102A20000E9300230F930023109302AB48481946DE
:102A3000FFF71CF846480121FFF76EF803238DF8D5
:102A4000483000238DF84B30FE23119311AB4148E1
:102A50001946FFF73DF93023119311AB3E48194653
:102A6000FFF736F9002313930023149300231593E3
:102A70000023169313AB1846FEF7E6FD00231793C9
:102A800001238DF8603001238DF861304FF08053C1
:102A900019934FF000731A9300231B9309238DF8A9
:102AA000703017AB2D481946FEF77AFD2B480121EF
:102AB00001220723FEF70CFE2848022102220723E9
:102AC000FEF706FE2548032103220723FEF700FE3A
:102AD0002248042104220723FEF7FAFD1F4805219E
:102AE00005220723FEF7F4FD1C48062106220723D2
:102AF000FEF7EEFD1948072107220723FEF7E8FD40
:102B000016480E2108220723FEF7E2FD13480F2185
:102B100009220723FEF7DCFD10480121FEF7B8FE6D
:102B20000E480121FEF798FE0C480121FEF7B4FD86
:102B30000A4B0A4A926842F080429A60019B18460A
:102B40001FB05DF804FB00BF050040004C200140B1
:102B500010640240000002400008024000200140D2
:102B600084B00190009100238DF80F301DE09DF896
:102B70000F309B00009A13449DF80F10019A32F811
:102B8000112092B207EE902AB8EEE77ADFED0A7ACA
:102B900027EE277ADFED097AC7EE277AC3ED007AB0
:102BA0009DF80F3001338DF80F309DF80F30082B52
:102BB000DDD904B0704700BF3333534000F07F4588
:102BC00008B510481049FEF7FDFF0346002B0CBF67
:102BD00000230123DBB2002B12D00A480A49FFF779
:102BE00049F80A4B1B685A1C084B1A60074B1A68B5
:102BF000074B9A4204D9054B1B685A1E034B1A60B7
:102C000008BD00BF1064024020800010AC2E0120DF
:102C1000943D0100BFF34F8F054A054BDB6803F479
:102C2000E061044B0B43D360BFF34F8FFEE700BF5F
:102C300000ED00E00400FA0500B583B0044B0193F9
:102C4000019B044A1A60FFF7E5FF03B05DF804FB3F
:102C5000F1FF0120EFBEADDE00B585B00190154B50
:102C60000393019B039A1A609DED037ADDED037ACD
:102C700067EE277A019BC3ED017A019B4FF07E52EC
:102C80009A60019B4FF000025A61019B5A69019BB7
:102C90001A61019B1A69019BDA60019B183318467F
:102CA00000210C2210F01AF8019B184605B05DF8BF
:102CB00004FB00BF2DF9853F00B5A3B003908DED57
:102CC000020A01910092039B03F1080204AB104633
:102CD000194600F0F7FA069B1193099B12930C9B7F
:102CE00013939DED117ADFED2E7A67EE277ACDED05
:102CF000147A9DED127ADFED2A7A67EE277ACDED10
:102D0000157A9DED137ADFED267A67EE277ACDED01
:102D1000167A14AB184600F02DFC8DED210A0098B0
:102D200000F028FC8DED200A9DED210A0EF0B0FB8D
:102D300010EE103A18460FF0DFF802460B46104628
:102D4000194615A3D3E900230FF09CFB0346002B83
:102D500014D19DED200A0EF09BFB10EE103A1846A0
:102D60000FF0CAF802460B46104619460AA3D3E9EB
:102D700000230FF087FB0346002B01D0012300E066
:102D80000023002B0ED04FF000031993199B1893CA
:102D9000189B17933BE000BFA0C2EBFE4B48B43931
:102DA00048E11C41009B93ED007ADDED207AC7EEEF
:102DB000277ACDED177A009B043393ED007ADDED91
:102DC000207AC7EE277ACDED187A009B083393ED71
:102DD000007ADDED207AC7EE277ACDED197A9DEDE8
:102DE000147ADDED217AC7EE277ACDED147A9DEDC8
:102DF000157ADDED217AC7EE277ACDED157A9DEDB6
:102E0000167ADDED217AC7EE277ACDED167A17A96D
:102E100014AA1AAB084611461A4600F05BFB039B46
:102E200093ED067ADDED1A6ADDED027A66EEA77A99
:102E300077EE277A039BC3ED067A039B93ED077A1F
:102E4000DDED1B6ADDED027A66EEA77A77EE277A72
:102E5000039BC3ED077A039B93ED087ADDED1C6AB3
:102E6000DDED027A66EEA77A77EE277A039BC3ED53
:102E7000087A019B93ED007A039BD3ED006ADDEDA8
:102E80001A7A66EEA77A37EE277A039BD3ED016AAA
:102E9000039BD3ED067A66EEA77A77EE277ACDED1F
:102EA0001F7A019B043393ED007A039BD3ED006AF4
:102EB000DDED1B7A66EEA77A37EE277A039BD3ED1A
:102EC000016A039BD3ED077A66EEA77A77EE277A3D
:102ED000CDED1E7A019B083393ED007A039BD3ED71
:102EE000006ADDED1C7A66EEA77A37EE277A039B3F
:102EF000D3ED016A039BD3ED087A66EEA77A77EEED
:102F0000277ACDED1D7A039BD3ED037AB1EE677A74
:102F1000DDED1F7A27EE277A039BD3ED046ADDED02
:102F20001E7A66EEA77A37EE677A039BD3ED056AC1
:102F3000DDED1D7A66EEA77A37EE677AF0EE007A5D
:102F4000C7EE277ACDED0D7A039B93ED027ADDED86
:102F50001F7A27EE277A039BD3ED056ADDED1E7AF3
:102F600066EEA77A37EE677A039BD3ED046ADDED50
:102F70001D7A66EEA77A37EE277AF0EE007AC7EE72
:102F8000277ACDED0E7A039B93ED057ADDED1F7A5E
:102F900027EE277A039BD3ED026ADDED1E7A66EEFB
:102FA000A77A37EE277A039BD3ED036ADDED1D7A0E
:102FB00066EEA77A37EE677AF0EE007AC7EE277AE8
:102FC000CDED0F7A039BD3ED047AB1EE677ADDED98
:102FD0001F7A27EE277A039BD3ED036ADDED1E7A75
:102FE00066EEA77A37EE277A039BD3ED026ADDED12
:102FF0001D7A66EEA77A37EE277AF0EE007AC7EEF2
:10300000277ACDED107A039B93ED027ADDED0D6A00
:10301000DDED027A66EEA77A77EE277A039BC3EDA1
:10302000027A039B93ED037ADDED0E6ADDED027A01
:1030300066EEA77A77EE277A039BC3ED037A039BAC
:1030400093ED047ADDED0F6ADDED027A66EEA77A84
:1030500077EE277A039BC3ED047A039B93ED057A01
:10306000DDED106ADDED027A66EEA77A77EE277A5B
:10307000039BC3ED057A039B08330398194600F0C0
:1030800003F823B05DF804FB00B587B00190009110
:10309000009BD3ED007AF5EEC07AF1EE10FA01D57F
:1030A000184B01E04FF07E530493009800F090FA23
:1030B0008DED030A00238DF817301BE09DF81730C3
:1030C0009DF81720920000990A4492ED007ADDEDF8
:1030D000047A27EE277ADDED037AC7EE277A019A84
:1030E00002339B001344C3ED007A9DF8173001337F
:1030F0008DF817309DF81730032BDFD907B05DF836
:1031000004FB00BF000080BF82B001900091019BD2
:103110009A68009B1A60009B0433019AD2681A6077
:10312000009B0833019A12691A60009B0C33019AC4
:1031300052691A6002B0704710B58CB001900091CE
:10314000019B93ED007A019BD3ED007A67EE277A1D
:10315000CDED0B7A019B043393ED007A019B043390
:10316000D3ED007A67EE277ACDED0A7A019B08331A
:1031700093ED007A019B0833D3ED007A67EE277A4E
:10318000CDED097A019B0C3393ED007A019B0C3352
:10319000D3ED007A67EE277ACDED087A019B0433F0
:1031A00093ED007A019B0C33D3ED007A27EE277A5A
:1031B000019BD3ED006A019B0833D3ED007A66EEE4
:1031C000A77A77EE677A77EEA77ACDED077A9DED4D
:1031D0000B7ADDED0A7A37EE277ADDED097A37EEE4
:1031E000677ADDED087A77EE677ACDED067A019B96
:1031F000043393ED007A019B0833D3ED007A27EE78
:10320000277A019BD3ED006A019B0C33D3ED007A42
:1032100066EEA77A77EE277A77EEA77ACDED057A74
:10322000019B083393ED007A019B0C33D3ED007AB8
:1032300027EE277A019BD3ED006A019B0433D3ED7F
:10324000007A66EEA77A77EE277A77EEA77ACDED49
:10325000047A9DED0B7ADDED0A7A37EE677ADDEDC3
:10326000097A37EE677ADDED087A77EE277ACDEDC9
:10327000037A009B1C1DDDED077AF1EE677AB0EE54
:10328000670A0EF00DF9F0EE407AC4ED007A009B6B
:1032900003F108049DED050ADDED060A0EF05EF966
:1032A000F0EE407AC4ED007A9DED040ADDED030AEC
:1032B0000EF054F9F0EE407A009BC3ED007A0CB0AA
:1032C00010BD00BF86B001900091019B93ED007A84
:1032D000019BD3ED007A67EE277ACDED057A019B4D
:1032E000043393ED007A019B0433D3ED007A67EE4B
:1032F000277ACDED047A019B083393ED007A019B88
:103300000833D3ED007A67EE277ACDED037A019B7F
:103310000C3393ED007A019B0C33D3ED007A67EE0A
:10332000277ACDED027A9DED057ADDED047A37EE50
:10333000277ADDED037A37EE677ADDED027A77EEF4
:10334000677A009BC3ED007A019B043393ED007A0A
:10335000019B0833D3ED007A27EE277A019BD3ED4A
:10336000006A019B0C33D3ED007A66EEA77A77EE04
:10337000277A77EEA77A009BC3ED017A019B04338D
:1033800093ED007A019B0C33D3ED007A27EE277A78
:10339000019BD3ED006A019B0833D3ED007A66EE02
:1033A000A77A77EE677A77EEA77A009BC3ED027A69
:1033B000009B0C33019A043292ED007A019A083294
:1033C000D2ED007A27EE277A019AD2ED006A019AAF
:1033D0000C32D2ED007A66EEA77A77EE677A77EE56
:1033E000A77AC3ED007A009B0C339DED057ADDEDE5
:1033F000047A37EE677ADDED037A37EE277ADDED72
:10340000027A77EE677AC3ED017A009B0C33019A5A
:10341000083292ED007A019A0C32D2ED007A27EE52
:10342000277A019AD2ED006A019A0432D2ED007A2D
:1034300066EEA77A77EE277A77EEA77AC3ED027A5F
:10344000009B1833019A043292ED007A019A0C32F3
:10345000D2ED007A27EE277A019AD2ED006A019A1E
:103460000832D2ED007A66EEA77A77EE277A77EE09
:10347000A77AC3ED007A009B1833019A083292EDC7
:10348000007A019A0C32D2ED007A27EE277A019A5F
:10349000D2ED006A019A0432D2ED007A66EEA77A84
:1034A00077EE677A77EEA77AC3ED017A009B18333F
:1034B0009DED057ADDED047A37EE677ADDED037A6E
:1034C00037EE677ADDED027A77EE277AC3ED027A7E
:1034D00006B0704784B0039002910192039B0433BD
:1034E00093ED007A029B0833D3ED007A27EE277A1A
:1034F000029B0433D3ED006A039B0833D3ED007ABB
:1035000066EEA77A77EE677A019BC3ED007A019B9E
:103510000433029A92ED007A039A0832D2ED007ACF
:1035200027EE277A039AD2ED006A029A0832D2ED8A
:10353000007A66EEA77A77EE677AC3ED007A019B90
:103540000833039A92ED007A029A0432D2ED007A9F
:1035500027EE277A029AD2ED006A039A0432D2ED5E
:10356000007A66EEA77A77EE677AC3ED007A04B048
:10357000704700BF00B583B00190019B93ED007AC6
:10358000019BD3ED007A27EE277A019B0433D3ED1C
:10359000006A019B0433D3ED007A66EEA77A37EE1A
:1035A000277A019B0833D3ED006A019B0833D3EDE2
:1035B000007A66EEA77A77EE277AB0EE670A0DF00A
:1035C000CFFFF0EE407AB0EE670A03B05DF804FB7F
:1035D00000B583B00190019B93ED007A019BD3ED80
:1035E000007A27EE277A019B0433D3ED006A019B12
:1035F0000433D3ED007A66EEA77A37EE277A019B83
:103600000833D3ED006A019B0833D3ED007A66EEF0
:10361000A77A37EE277A019B0C33D3ED006A019B22
:103620000C33D3ED007A66EEA77A77EE277AB0EE08
:10363000670A0DF095FFF0EE407AB0EE670A03B02E
:103640005DF804FB86B0039002911346ADF8063096
:10365000BDF80630ADF8163014E0BDF816301B0288
:103660009AB2BDF816301912039B581C03901B78B0
:103670004B4099B20B4B33F811309BB253409BB285
:10368000ADF81630029B5A1E0292002B0CBF00238D
:103690000123DBB2002BE0D1BDF81630184606B08E
:1036A000704700BF7C4001080FB400B5B5B037AB20
:1036B00033936B461846C821369A339B0FF0AEFF02
:1036C0006B460448194607F085FF35B05DF804EBFA
:1036D00004B07047C808002000B589B003908DED94
:1036E000020ACDED010A8DED001A01980EF004FCDE
:1036F00002460B46104619465AA3D3E900230EF0A2
:103700004FFC02460B46104619460EF0E3FE0346F8
:103710000793029B0693009B05939DED067ADDEDD2
:10372000067A27EE277ADDED077A27EE277ADDED98
:10373000077A27EE277ADDED056AF1EE007A66EE6C
:10374000A76ADDED067A66EEA76ADDED077A66EE1A
:10375000A77A37EE277AF1EE007A77EE277ACDED69
:10376000047ADDED067A37EEA77ADDED067A27EEEC
:10377000277ADDED077A27EE277ADDED077A27EE47
:10378000277AF2EE007A37EE677ADDED047AC7EE3B
:10379000277A039BC3ED037A9DED067ADDED067A69
:1037A00027EE277ADDED077A27EE277ADDED077A17
:1037B00027EE277ADDED056AF1EE007A66EEA76A5C
:1037C000DDED067A66EEA76ADDED077A66EEA77A8A
:1037D00037EE677AF1EE007A37EE277ADDED047A7C
:1037E000C7EE277A039BC3ED047ADDED067A37EE48
:1037F000A77ADDED077A27EE277ADDED077A27EE47
:10380000277ADDED047AC7EE277A039BC3ED007AB1
:103810009FED137ADDED047AC7EE277A039BC3EDA3
:10382000017A9DED067AF8EE007A27EE277ADDED33
:10383000077A27EE277ADDED077A27EE277ADDED86
:10384000047AC7EE277A039BC3ED027A039800F04F
:103850000FF8039B184609B05DF804FBAFF3008036
:10386000000000006E861BF0F9211940AFF30080C4
:1038700082B00190019B4FF000021A62019B1A6A0C
:10388000019BDA61019BDA69019B9A61019B9A694C
:10389000019B5A6102B0704784B001908DED000A1F
:1038A000019B93ED007ADDED007A27EE277A019BEC
:1038B000D3ED016A019BD3ED077A66EEA77A37EE66
:1038C000277A019BD3ED026A019BD3ED087A66EE5D
:1038D000A77A37EE277A019BD3ED036A019BD3EDDC
:1038E000057A66EEA77A37EE677A019BD3ED046A14
:1038F000019BD3ED067A66EEA77A77EE677ACDED77
:10390000037A019BDA69019B1A62019B009ADA61D2
:10391000019B5A69019B9A61019B039A5A61039B1F
:1039200007EE903AB0EE670A04B0704782B001909B
:10393000019B9B68019A12881A8302B0704700BFEE
:1039400082B00190019B9B68019A12885A8302B051
:10395000704700BF00B585B001908DF803108DF859
:1039600002208DF801309DF80330072B68D801A2A2
:1039700052F823F095390008AB390008C139000826
:10398000D7390008ED390008013A0008153A000857
:103990002B3A0008019B4FF400521A80019B102221
:1039A0005A60019B3D4A9A604AE0019B4FF4804275
:1039B0001A80019B10225A60019B384A9A603FE0AE
:1039C000019B4FF400421A80019B10225A60019B18
:1039D000324A9A6034E0019B4FF480621A80019B66
:1039E00002225A60019B2E4A9A6029E0019B102214
:1039F0001A80019B02225A60019B294A9A601FE0AB
:103A0000019B20221A80019B02225A60019B244ABA
:103A10009A6015E0019B4FF480721A80019B02228C
:103A20005A60019B1E4A9A600AE0019B4FF40072A3
:103A30001A80019B02225A60019B194A9A6000BFBA
:103A4000019B5B6818460121FEF7C0FA019B1B88A9
:103A5000029301238DF80C309DF802308DF80E3062
:103A600003238DF80D309DF801308DF80F30019B48
:103A70009A6802AB10461946FEF72AF99DF81830ED
:103A8000002B03D00198FFF751FF02E00198FFF7E8
:103A900057FF019B184605B05DF804FB001002407B
:103AA0000004024000B595B003900291019200938A
:103AB000039B169A5A60039B00229A60039B029A0A
:103AC000DA60169B184608F08CF80246039B1A60D1
:103AD000039B1B68002B05D1022021491522214B95
:103AE00002F0FEF94FF400100121FEF76FFA4FF4D7
:103AF00080000121FEF76AFA0298FDF7E5FE019BBE
:103B00000593009B0693039B1B6807930023089370
:103B1000169B099300230A934FF480630B930023B1
:103B20000C9300230D934FF480730E934FF40033E6
:103B30000F93002310930323119300231293002368
:103B4000139305AB02981946FDF790FF02980121E7
:103B5000FDF7E2FF039B184615B05DF804FB00BFBC
:103B60007C4201089C42010800B583B00190019B92
:103B70001B68002B08D0019B1B68002B04D0019B05
:103B80001B68184608F02FF8019B184603B05DF833
:103B900004FB00BF84B00190019B5A68019BDB6865
:103BA0005B689BB2D31A0393019B9A68039B9A426A
:103BB00014BF00230123DBB2184604B0704700BFD6
:103BC00000B583B0019000910198FFF7E3FF034631
:103BD000002B01D0002314E0019B1A68019B9B6815
:103BE00013441A78009B1A70019B9B680133019A59
:103BF0005268B3FBF2F102FB01F29A1A019B9A6040
:103C00000123184603B05DF804FB00BF82B00346F1
:103C10008DF80730074B9DF9072052099DF80710D2
:103C200001F01F01012000FA01F143F8221002B057
:103C3000704700BF00E100E082B003468DF8073016
:103C4000074B9DF9072052099DF8071001F01F014D
:103C5000012000FA01F1203243F8221002B070472F
:103C600000E100E000B595B00390029101928DF85B
:103C70000330039B199A5A60039B00229A60039BAE
:103C80000022DA60039B00221A74039B179A9A6140
:103C9000039B189ADA61039B00221A62039B9DF82A
:103CA00003205A74039B029A5A61199B184607F025
:103CB00098FF0246039B1A60039B1B68002B05D1EB
:103CC000022026492022264B02F00AF94FF4001068
:103CD0000121FEF77BF94FF480000121FEF776F910
:103CE000039B5B691846FDF7EFFD019B0593169B4F
:103CF000069300230793402308930023099300238E
:103D00000A934FF480630B9300230C9300230D93CD
:103D100000230E934FF400330F93042310930323D7
:103D200011930023129300231393039B5A6905AB4D
:103D300010461946FDF79AFE039B5B69184614214D
:103D40000122FDF705FF039B5B6918460121FDF782
:103D5000E3FE039B184615B05DF804FBAC42010876
:103D6000CC42010800B583B00190019B1B68002B79
:103D700008D0019B1B68002B04D0019B1B681846D0
:103D800007F031FF019B184603B05DF804FB00BF4C
:103D900000B589B0059004911346ADF80E30BDF81A
:103DA0000E20059B5B689A4203D8BDF80E30002BAD
:103DB00001D100232BE0059B5B7C5BB21846FFF72B
:103DC0003BFFBDF80E2007AB0DF11A0100910598DD
:103DD000049900F021F803468DF81F309DF81F303C
:103DE000002B0CD0059B1B7C83F00103DBB2002B66
:103DF00005D0BDF81C300598194600F0DFF8059B8A
:103E00005B7C5BB21846FFF701FF9DF81F30184638
:103E100009B05DF804FB00BF00B587B003900291C4
:103E200000931346ADF806300023ADF81630039B1F
:103E30009B689BB201339AB2009B1A80039B9B68DC
:103E40009AB2BDF8063013449AB2089B1A80039BBD
:103E50001B7C002B2BD0039B5B695B68ADF8143097
:103E6000039BDA68039B9B689A4212D9039B9B6869
:103E70009AB2039B5B689BB213449AB2BDF81430AC
:103E800013449AB2039BDB689BB2D31AADF8163089
:103E900021E0039B9B689AB2039BDB689BB2D31A19
:103EA0009AB2BDF814301344ADF8163013E0009BFD
:103EB00000221A80039B0022DA60039BDA68039BCE
:103EC0009A60039B9B68ADF81630BDF80630013B45
:103ED0009AB2089B1A80BDF80620039B5968BDF86A
:103EE0001630CB1A013B9A4201D9002362E0009BB5
:103EF0001B881A46039B5B689A4212D1009B0022E2
:103F00001A80BDF80630013B9AB2089B1A80039BC9
:103F10001A68BDF80630104602991A460EF0D5FE12
:103F200042E0089B1B881A46039B5B689A422FD38A
:103F3000089B1A88039B5B689BB2D31A9AB2089BB2
:103F40001A80039B1A68009B1B881A44039B5968BC
:103F5000009B1B88CB1A104602991A460EF0B5FE3C
:103F6000039B1968039B5A68009B1B88D31A029A0B
:103F70001A44BDF80600009B1B8803441846039BA7
:103F80005B68C31A084611461A460EF09EFE0BE007
:103F9000039B1A68009B1B881A44BDF80630104624
:103FA00002991A460EF091FE089B1B881A46039B45
:103FB0009A600123184607B05DF804FB00B585B090
:103FC00001900B46ADF802300023ADF80E30BDF87D
:103FD0000220019B9B689A420DD9019B5B689AB2B3
:103FE000BDF80230D31AADF80E30019B5B685A1E43
:103FF000019BDA600DE0019B9B689AB2BDF802302C
:10400000D31A9BB20133ADF80E30019B9A68019B25
:10401000DA60019B5B6918460021FDF77DFD019B7D
:104020005B69019A1168BDF802200A44DA60019BBD
:104030005B69BDF80E205A60019B01221A74019B36
:104040005A69019B9B6910461946FDF713FE019BB7
:104050005A69019BDB6910461946FDF70BFE019B6F
:104060005B6918460121FDF757FD0123184605B08D
:104070005DF804FB00B583B00190019B5A69019B78
:10408000DB6910461946FDF79DFD0346002B0CBF6A
:1040900000230123DBB2002B0CD0019B5A69019B4A
:1040A000DB6910461946FDF7E5FD019B1B6A5A1CAA
:1040B000019B1A62019B5A69019B9B691046194634
:1040C000FDF780FD0346002B0CBF00230123DBB26C
:1040D000002B20D0019B5A69019B9B691046194611
:1040E000FDF7C8FD019BDA68019B9B689A420FD0DF
:1040F000019BDB680133019A5268B3FBF2F102FBCA
:1041000001F29B1A9BB201981946FFF757FF02E094
:10411000019B00221A7403B05DF804FB00B585B062
:1041200001900B468DF80330019B9DF803201A7017
:10413000019B00225A80019B00229A80019B1B78E0
:10414000002B02D0012B3DD07AE004200121FDF7A5
:104150003DFF02200121FDF757FFC02302930223F8
:104160008DF80C3003238DF80D3001238DF80E30BF
:1041700001238DF80F3002AB34481946FDF7A8FD36
:1041800033484FF6FF71FEF729F931480321002229
:104190000023FEF7D5FA2D4806210222FDF726FE60
:1041A0002A4807210222FDF721FE29480121FEF7B6
:1041B00043F9274A264B1B8B99B2264B0B439BB2E4
:1041C00013833DE008200121FDF700FF04200121B9
:1041D000FDF71AFF4FF44053029302238DF80C3081
:1041E00003238DF80D3001238DF80E3001238DF857
:1041F0000F3002AB18481946FDF76AFD17484FF615
:10420000FF71FEF7EBF81548032100220023FEF7AB
:1042100097FA11480C210222FDF7E8FD0E480D2106
:104220000222FDF7E3FD0D480121FEF705F90B4AD7
:104230000A4B1B8B99B2074B0B439BB2138300BFF6
:10424000019B184605B05DF804FB00BF0008024062
:1042500000040040F0F0FFFF000C024000080040A6
:1042600084B00190019B1B78002B02D0012B05D05C
:1042700009E01F4B5B6AADF80E3004E01D4B5B6A32
:10428000ADF80E3000BF019B5B88B3F5404F0DD9F0
:10429000BDF80E30B3F5804F08D2019B9B889BB2CE
:1042A00001339BB29AB2019B9A8011E0019B5B881B
:1042B000B3F5804F0CD2BDF80E30B3F5404F07D99F
:1042C000019B9B889BB2013B9BB29AB2019B9A8057
:1042D000019B9B881BB21A04BDF80E301344029355
:1042E000019BBDF80E205A80029B184604B070470F
:1042F000000400400008004084B001900091009B41
:10430000002B0DDA009B002B02DA03F57F43FF330D
:104310001B149BB2013B9BB29AB2019B9A8009E0AD
:10432000009B002B02DA03F57F43FF331B149AB284
:10433000019B9A80009BADF80E30019BBDF80E20CA
:104340005A80019B1B78002B02D0012B05D009E07D
:10435000054BBDF80E205A6204E0044BBDF80E2058
:104360005A6200BF04B070470004004000080040DB
:1043700000B585B0019002200121FDF727FE08203D
:104380000121FDF723FE01238DF80C3001238DF868
:104390000E3003238DF80D3000238DF80F304FF4CD
:1043A0007043029302AB0A481946FDF791FC4FF4A3
:1043B0007063029302AB07481946FDF789FC019828
:1043C000002100F009F8019B184605B05DF804FBD8
:1043D00000040240000C024084B001900B468DF8AE
:1043E000033000238DF80F3021E09DF803209DF865
:1043F0000F3042FA03F303F00103002B09D0244BE2
:104400009DF80F200C32012101FA02F292B25A8378
:1044100008E01F4B9DF80F200C32012101FA02F237
:1044200092B21A839DF80F3001338DF80F309DF84A
:104430000F30032BD9D904238DF80E3021E09DF8DD
:1044400003209DF80E3042FA03F303F00103002B22
:1044500009D0104B9DF80E200432012101FA02F21E
:1044600092B25A8308E00B4B9DF80E2004320121D2
:1044700001FA02F292B21A839DF80E3001338DF8E0
:104480000E309DF80E30072BD9D904B0704700BF0D
:1044900000040240000C024082B001900B46ADF8CF
:1044A0000230BDF9023007EE903AB8EEE77A019B90
:1044B000D3ED037A67EE277AB0EE670A02B0704751
:1044C00082B001900B46ADF80230BDF9023007EE24
:1044D000903AB8EEE77A019BD3ED047A67EE277A3B
:1044E000B0EE670A02B0704782B00190019B0022D3
:1044F0001A70019B00225A60019B02229A60019B64
:104500004FF00002DA60019B4FF000021A61019B3C
:10451000184602B0704700BF00B583B00190019B00
:104520009B68184600F014FD0246019B5A60019BEF
:104530005B68002B01D1FE230EE0019800F09EF98C
:10454000034683F00103DBB2002B01D0FF2303E01D
:10455000019800F015F900235BB2184603B05DF82E
:1045600004FB00BF10B584B0019000913C4B4FF4A8
:1045700000425A83019B5B6818463A4900F0CAFD25
:10458000019B5B681846C32100F042FE019B5B68FB
:104590001846002100F03CFE03468DF80D30019BCB
:1045A0005B681846002100F033FE03468DF80C309E
:1045B000BDF80C301BB201981946FFF76DFFF0EE05
:1045C000407A009BC3ED007A019B5B68184600218E
:1045D00000F01EFE03468DF80D30019B5B68184607
:1045E000002100F015FE03468DF80C30009B1C1DC9
:1045F000BDF80C301BB201981946FFF74DFFF0EEE5
:10460000407AC4ED007A019B5B681846002100F0F7
:10461000FFFD03468DF80D30019B5B6818460021B5
:1046200000F0F6FD03468DF80C30009B03F1080402
:10463000BDF80C301BB201981946FFF72DFFF0EEC4
:10464000407AC4ED007A064B4FF400421A83019B76
:104650005B681846044900F05DFD04B010BD00BF62
:1046600000000240002D310140420F0010B584B01F
:10467000019000913F4B4FF400425A83019B5B68CD
:1046800018463D4900F046FD019B5B681846BA217B
:1046900000F0BEFD019B5B681846002100F0B8FDEC
:1046A000019B5B681846002100F0B2FD03468DF8BF
:1046B0000D30019B5B681846002100F0A9FD034600
:1046C0008DF80C30BDF80C301BB201981946FFF77D
:1046D000F7FEF0EE407A009BC3ED007A019B5B6829
:1046E0001846002100F094FD03468DF80D30019B23
:1046F0005B681846002100F08BFD03468DF80C30F6
:10470000009B1C1DBDF80C301BB201981946FFF729
:10471000D7FEF0EE407AC4ED007A019B5B68184644
:10472000002100F075FD03468DF80D30019B5B689C
:104730001846002100F06CFD03468DF80C30009BFC
:1047400003F10804BDF80C301BB201981946FFF7BD
:10475000B7FEF0EE407AC4ED007A064B4FF400420B
:104760001A83019B5B681846044900F0D3FC04B02F
:1047700010BD00BF00000240002D310140420F007B
:1047800000B583B0019001986B21802200F04AF9B6
:10479000019842F2107100F07BF90198682107221C
:1047A00000F040F9019842F2107100F071F901989F
:1047B0006B21032200F036F901984FF47A7100F072
:1047C00067F901986A21102200F02CF901984FF442
:1047D0007A7100F05DF901984FF4FA7100F070F809
:1047E00001984FF47A7100F053F901982A2100F0F2
:1047F00099F801984FF47A7100F04AF9019B1D4A2B
:10480000DA6001981B21182200F00CF901984FF48E
:104810007A7100F03DF9019B1B78142B0ADB152BF4
:1048200002DD543B012B05D801981C21082200F021
:10483000F9F805E001981C21102200F0F3F800BF00
:10484000019B0D4A1A6101983821012200F0EAF813
:1048500001984FF47A7100F01BF90198372110226A
:1048600000F0E0F801984FF47A7100F011F903B00C
:104870005DF804FB487D8B3A0AE81C3B00B585B027
:10488000019001238DF80F3001980C2100F09AF867
:1048900003461A46019B1A70019B1B78142B04DBFC
:1048A000182B06DD543B062B03D900238DF80F305F
:1048B00000E000BF9DF80F30184605B05DF804FB1E
:1048C00000B585B001900B46ADF80230BDF802305E
:1048D000002B03D14FF47A73ADF80230BDF80230EB
:1048E0004FF47A7292FBF3F38DF80F309DF80F308E
:1048F000C82B03D9C8238DF80F3006E09DF80F3080
:10490000002B02D101238DF80F309DF80F30013BB1
:10491000DBB2019819211A4600F084F805B05DF861
:1049200004FB00BF00B585B001900B46ADF8023026
:1049300000238DF80F30BDF80230052B03D8062375
:104940008DF80F3033E0BDF802300A2B03D8052371
:104950008DF80F302BE0BDF80230142B03D8042360
:104960008DF80F3023E0BDF802302A2B03D8032343
:104970008DF80F301BE0BDF80230622B03D8022304
:104980008DF80F3013E0BDF80230BC2B03D80123A3
:104990008DF80F300BE0BDF80230B3F5807F03D8FF
:1049A00000238DF80F3002E007238DF80F309DF8BB
:1049B0000F3001981A211A4600F034F805B05DF85E
:1049C00004FB00BF00B585B001900B468DF80330A5
:1049D0009DF8033003F07F038DF80330104B4FF444
:1049E00000425A83019B5A689DF8033063F07F03AD
:1049F000DBB21046194600F00BFC019B5B681846C1
:104A0000002100F005FC03468DF80F30044B4FF4F5
:104A100000421A839DF80F30184605B05DF804FB7C
:104A20000000024000B583B0019013460A468DF89D
:104A300003208DF802309DF8033003F07F038DF8DA
:104A40000330114B4FF400425A830198012100F0CA
:104A50001FF8019B5A689DF803301046194600F074
:104A6000D7FB019B5A689DF802301046194600F0AA
:104A7000CFFB0198012100F00BF8034B4FF40042EB
:104A80001A8303B05DF804FB000002400000000040
:104A900000B583B00190009100980DF00BFA02462A
:104AA0000B46104619460BA3D3E900230DF078FA04
:104AB00002460B4643EC172B0548B0EE470AF0EED2
:104AC000670A00F00BFD03B05DF804FBAFF3008054
:104AD000E00000208DEDB5A0F7C6B03EAFF300803A
:104AE00088B007908DED060ACDED050A8DED041A0C
:104AF000CDED031A8DED022ACDED012A8DED003AA0
:104B0000079B069A1A60079B059A5A60079B049AAE
:104B10009A60079B039A1A61079B029ADA60079BC7
:104B2000019A9A61079B009A5A61079B4FF0000215
:104B3000DA61079B4FF000021A62079B184608B023
:104B4000704700BF86B003908DED020ACDED010ADB
:104B50008DED001A039B93ED077A039BD3ED016A59
:104B6000DDED027A66EEA76ADDED007A66EEA77AE1
:104B700077EE277A039BC3ED077A039B93ED077AC1
:104B8000039BD3ED047AB4EEE77AF1EE10FA03D585
:104B9000039B1A69039BDA61039B93ED077A039BDE
:104BA000D3ED037AB4EEE77AF1EE10FA03DD039B5E
:104BB000DA68039BDA61039B93ED007ADDED027AFC
:104BC00027EE277A039BD3ED077A37EE277A039BEC
:104BD000D3ED026ADDED017A66EEA77A77EE277AE9
:104BE000CDED057A039B93ED067ADDED057AB4EE03
:104BF000E77AF1EE10FA02DD039B9B690593039BB4
:104C000093ED057ADDED057AB4EEE77AF1EE10FA70
:104C100002D5039B5B690593039B029A1A62059B6D
:104C200007EE903AB0EE670A06B0704700B587B05D
:104C300003908DED020ACDED010ADDED017AF5EE6E
:104C4000407AF1EE10FA02D1DFED0F7A17E0039B04
:104C5000D3ED087A9DED027A37EE677ADDED017AC1
:104C6000C7EE277ACDED057A03989DED020ADDEDBA
:104C7000050A9DED011AFFF765FFF0EE407AB0EEF0
:104C8000670A07B05DF804FB0000000082B00190E5
:104C90000091009B1A68019B1A60009B9A68019B17
:104CA0009A60009B5A68019B5A60009B5A69019B5D
:104CB0009A61009B9A69019B5A61009BDA68019B8B
:104CC0001A61009B1A69019BDA6002B0704700BF4D
:104CD00082B001900091019B1A68009B1A60019BB1
:104CE0009A68009B9A60019B5A68009B5A60019BDE
:104CF0009A69009B5A61019B5A69009B9A61019BCA
:104D00001A69009BDA60019BDA68009B1A6102B0A5
:104D1000704700BF00B593B001900023ADF8463056
:104D2000019B40F60F621A6001200121FDF78AF90C
:104D300001200121FDF74AF94FF440730F9302233C
:104D40008DF8403003238DF8413000238DF8423038
:104D500000238DF843300FAB3F481946FCF7B8FFEE
:104D60003D4808210122FDF741F83B480921012275
:104D7000FDF73CF8019B1B680D93BDF84630ADF87C
:104D800030300023ADF838300023ADF83230002346
:104D90008DF83A300CAB31481946FDF7B5FA60236F
:104DA000ADF81C300123ADF81E300023ADF82030E3
:104DB000002309930023ADF828300023ADF82A30F2
:104DC0000023ADF82C300023ADF82E3007AB23487C
:104DD0001946FDF751FB21480821FDF74FFC07ABB1
:104DE0001E481946FDF7C2FB1C480821FDF762FC6E
:104DF0000023ADF80C300023ADF80E300023ADF8E1
:104E000010300023ADF812300023ADF81430002329
:104E1000ADF816300023ADF8183003AB0F48194633
:104E2000FDF766FC0D480121FDF7E6FA0B4A0B4B36
:104E3000B3F844309BB26FEA43436FEA53439BB2EB
:104E4000A2F8443005480121FDF7F6FA019B184607
:104E500013B05DF804FB00BF0000024000000140F9
:104E600000B587B003908DED020A0B468DF8073030
:104E70009DED020ADFED200AB7EE001A00F044F8BB
:104E80008DED020A039B1B6807EE903AB8EE677A35
:104E9000DDED027A67EE277AFCEEE77A17EE903ABC
:104EA00005939DF80730013B032B1BD801A252F854
:104EB00023F000BFC54E0008CD4E0008D54E0008B7
:104EC000DD4E00080D4B059A5A6312E00B4B059A14
:104ED0009A630EE0094B059ADA630AE0074B059ADC
:104EE0001A6406E0022006496C22064B00F0F8FF27
:104EF00000BF07B05DF804FB0000000000000140A7
:104F0000DC4201080C43010884B08DED030ACDEDAD
:104F1000020A8DED011A9DED037ADDED027AB4EE01
:104F2000E77AF1EE10FA01D5029B0BE09DED037AD2
:104F3000DDED017AB4EEE77AF1EE10FA01DD019BC6
:104F400000E0039B07EE903AB0EE670A04B07047AA
:104F500000B58BB00190019B032B07D90020654958
:104F60002122654B00F0BCFF0023BEE0634A019B99
:104F700013441B78002B04D0019BDA00604B1344D0
:104F8000B3E0019B032B00F2AF8001A252F823F0A3
:104F9000A14F0008A54F0008A94F0008E5500008E0
:104FA0000023A2E00023A0E0554A019BDB0013444C
:104FB000544A5A6001200121FDF708F84FF40043DC
:104FC000089301238DF8243000238DF82630022326
:104FD0008DF8253000238DF8273008AB4A48194654
:104FE000FCF776FE484B4FF400421A834FF4004022
:104FF0000121FDF709F804200121FCF7E7FF042057
:105000000121FCF7E3FF04200121FCF7DFFF3F480B
:105010000A210622FCF7EAFE3C480C210622FCF796
:10502000E5FE3A480B210622FCF7E0FE02238DF84C
:10503000243002238DF8253000238DF826300023FC
:105040008DF827304FF48063089308AB2F4819463A
:10505000FCF73EFE4FF48053089308AB2B481946EB
:10506000FCF736FE4FF40063089308AB2748194657
:10507000FCF72EFE2348FDF73FF80023ADF80C3077
:105080004FF48273ADF80E300023ADF810300223D8
:10509000ADF812300123ADF814304FF40073ADF8C1
:1050A00016300823ADF818300023ADF81A3003ABE2
:1050B00014481946FDF78CF8019BDA00104B134495
:1050C0001846134900F026F80E480121FDF7C4F8F0
:1050D0000A4A019B134401221A70019BDA00084B13
:1050E000134402E0002300E0002318460BB05DF8F3
:1050F00004FB00BF3443010854430108B02E0120D3
:10510000B42E0120003C0040000002400008024094
:1051100040420F0000B589B00190009102AB1846E3
:10512000FCF7AAFE059B0693019B5B681B889BB25C
:1051300023F03803ADF81E30069B5A08009B9A42B4
:105140005AD9069B9A08009B9A4206D8BDF81E3091
:1051500043F00803ADF81E304EE0069BDA08009BD2
:105160009A4206D8BDF81E3043F01003ADF81E3049
:1051700042E0069B1A09009B9A4206D8BDF81E30F1
:1051800043F01803ADF81E3036E0069B5A09009B29
:105190009A4206D8BDF81E3043F02003ADF81E3009
:1051A0002AE0069B9A09009B9A4206D8BDF81E3059
:1051B00043F02803ADF81E301EE0069BDA09009B81
:1051C0009A4206D8BDF81E3043F03003ADF81E30C9
:1051D00012E0069B1A0A009B9A4206D8BDF81E30C0
:1051E00043F03803ADF81E3006E000200649A9223E
:1051F000064B00F075FE04E0019B5B68BDF81E20C5
:105200001A8009B05DF804FB3443010868430108C3
:1052100000B585B001900B468DF803300023039351
:1052200007E0039B01330393039B632B01D9002306
:1052300036E0019B5B6818460221FDF749F80346FA
:10524000002B14BF00230123DBB2002BE9D1019B0B
:105250005A689DF803309BB210461946FDF72AF8AC
:105260000023039307E0039B01330393039B632B0A
:1052700001D9002314E0019B5B6818460121FDF76A
:1052800027F80346002B14BF00230123DBB2002BB9
:10529000E9D1019B5B681846FCF7FEFF0346DBB2D1
:1052A000184605B05DF804FB82B0034600918DF806
:1052B00007309DF90730002B0CDA0C499DF80730B8
:1052C00003F00F03043B009AD2B21201D2B20B4496
:1052D0001A7609E006499DF90730009AD2B2120108
:1052E000D2B20B4483F8002302B0704700ED00E017
:1052F00000E100E000B583B00190019BB3F1807F35
:1053000001D3012311E00B4B019A22F07F42013AB5
:105310005A604FF0FF300F21FFF7C6FF054B002208
:105320009A60044B07221A600023184603B05DF808
:1053300004FB00BF10E000E000B583B001900198CD
:1053400000F066F802460B46104619460CF0F2FDD6
:10535000019BD3E904230CF023FE02460B4643ECE9
:10536000172BB0EE470AF0EE670A03B05DF804FBB6
:1053700000B589B0019001994FF000024FF0000391
:10538000C1E9002301994FF000024FF00003C1E989
:10539000062302AB1846FCF76FFD039A019BDA6007
:1053A000019B6FF07F429A60019BDB6818460CF00E
:1053B00081FD02460B464FF000000E490CF01AFF2B
:1053C00002460B460199C1E90423019B9B680793A0
:1053D0000798FFF78FFF0690069B002B00D0FEE793
:1053E0004FF0FF300021FFF75FFF019B184609B027
:1053F0005DF804FB0000F03F044BD3E900230132C9
:1054000043F100030149C1E900237047E000002097
:1054100030B587B001902F4802F078FD03468DF833
:105420000F30019BD3E90001019B9B681A464FF0A6
:10543000000302FB01F500FB03F42C44A0FB022354
:10544000E1180B460199886823498968411A084682
:105450004FF00001121843EB0103CDE90423019B37
:10546000D3E90623DDE90401994208BF904220D226
:10547000019BD3E90023501C43F10001019B9B6871
:105480001A464FF0000302FB01F500FB03F42C4425
:10549000A0FB0223E1180B46019988680E49896830
:1054A000411A08464FF00001121843EB0103CDE901
:1054B00004239DF80F300748194602F039FD019981
:1054C000DDE90423C1E90623DDE90423104619467A
:1054D00007B030BD100A002010E000E070B586B0C3
:1054E00003908DED000B0398FFF726FF8DED040B65
:1054F00000BF0398FFF720FF55EC104BDDE90401D6
:10550000DDE900230CF09AFB02460B4601210E4612
:10551000204629460CF0B6FF0346002B01D100239C
:105520001E46F3B2002BE4D106B070BD00B583B0C7
:105530000190019B1846FFF7EDFB0848FEF700FAC3
:105540000748FEF7FDF90748FEF7FAF90648FEF7A7
:10555000F7F9019B184603B05DF804FBD42E012037
:10556000E02E0120EC2E0120F82E012000B583B0A2
:1055700001908DED000ADDED007AF5EEC07AF1EED6
:1055800010FA0DDD019B18469DED000A0221FFF780
:1055900067FC0D48FEF7CAF90C48FEF7D1F910E098
:1055A000019BDDED007AF1EE677A1846B0EE670AEE
:1055B0000221FFF755FC0548FEF7B8F90248FEF74F
:1055C000BFF903B05DF804FBE02E0120D42E0120CA
:1055D00000B583B001908DED000ADDED007AF5EEA7
:1055E000C07AF1EE10FA0DDD019B18469DED000A20
:1055F0000121FFF735FC0D48FEF798F90C48FEF73E
:105600009FF910E0019BDDED007AF1EE677A184614
:10561000B0EE670A0121FFF723FC0548FEF786F983
:105620000248FEF78DF903B05DF804FBF82E012067
:10563000EC2E012000B585B003900291039B012B55
:1056400024D1029A4FF6FF739A421FD10023009390
:105650001048012100220023FEF77CF9002300936B
:105660000D48002100220023FEF774F90023009367
:105670000A48022100220023FEF76CF90023009360
:105680000748032100220023FEF764F905B05DF806
:1056900004FB00BFD42E0120E02E0120EC2E0120BF
:1056A000F82E012008B501204FF6FF71FFF7C2FF69
:1056B00008BD00BF80B487B000AF87ED030AB860B3
:1056C000796097ED037ADFED2B7AB4EEE77AF1EEAD
:1056D00010FA07DD97ED037ADFED277A77EE677A28
:1056E000C7ED037A97ED037ADFED247A27EE277A68
:1056F000F0EE007A87EE277ADFED1E7A87EE277AC2
:10570000DFED1F7A77EE277AFDEEE77A17EE903A13
:10571000FB82B7F91630002B01DA0023FB82B7F9C0
:105720001630B3F57A7F02DB40F2E733FB82FB8A67
:10573000FA3B9BB2BB82B7F91430002B04DABB8A68
:1057400003F57A739BB2BB82B7F916300D4A9B0002
:1057500013441A687B681A60B7F91430094A9B0031
:1057600013441A68BB681A601C37BD465DF8047B99
:10577000704700BFDC0F4940DA0FC94000007A448F
:105780000000FA439843010808B5034B5B681846CC
:10579000FEF770FC08BD00BF082F012008B5034BC1
:1057A0005B691846FEF766FC08BD00BF082F0120A4
:1057B00082B00190019B184602B0704700B583B0DB
:1057C00003468DF807309DF80730294AD35C002B3B
:1057D00005D09DF807301A01264B134443E09DF88D
:1057E0000730002B02D0012B1ED03BE000F092F8D6
:1057F0009DF807301F4A1B01134408339DF807200A
:105800001A709DF807301B4A1B01134408331A4ACB
:105810005A609DF80730164A0121D1549DF807308F
:105820001A01144B13441EE000F024F99DF80730D0
:10583000104A1B01134408339DF807201A709DF885
:1058400007300C4A1B01134408330C4A5A609DF878
:105850000730074A0121D1549DF807301A01054B42
:10586000134400E00023184603B05DF804FB00BFBA
:10587000042F0120082F01200010014000440040A7
:1058800010B582B00190019B5B68002B09D0019B91
:105890005C68002C05D02046FEF764FA204606F02E
:1058A0009CF9019B1B68002B09D0019B1C68002CF4
:1058B00005D02046FEF758F9204606F08EF9019BE8
:1058C000184602B010BD00BF00B583B00190009132
:1058D000019B1B6818460099FEF772F903461846AB
:1058E00003B05DF804FB00BF00B585B003900291E2
:1058F0001346ADF80630039B5A68BDF806301046D3
:1059000002991A46FEF744FA0346184605B05DF8B8
:1059100004FB00BF10B58CB002200121FCF756FB40
:1059200010200121FCF78EFB474B0B93102006F053
:1059300067F9044632230093204644494FF0006241
:10594000434BFEF7AFF80B9B1C60242006F058F980
:1059500004463F4B00933F4B01933F4B02934FF460
:105960008073039320463D494FF000624623FEF7C3
:1059700079F90B9B5C600B9B1B68002B05D1022007
:1059800037496C22374B00F0ABFA0B9B5B68002B5E
:1059900005D1022032496D22334B00F0A1FA4FF4B9
:1059A000614305930023ADF818300023ADF81A3099
:1059B0000023ADF81C300023ADF820300C23ADF8E7
:1059C0001E3005AB29481946FCF700FF284807217F
:1059D0000722FCF70BFA264806210722FCF706FAF5
:1059E00000238DF82A3000238DF82B3002238DF808
:1059F000283003238DF82930C023099309AB1C48B4
:105A00001946FCF765F9194840210122FCF7B8FF57
:105A1000164880210122FCF7B3FF14480121FCF74E
:105A20008FFF2F238DF8103003238DF811300023C2
:105A30008DF8123001238DF8133004AB1846FBF7B4
:105A400051FD0CB010BD00BF082F01204064024082
:105A5000041001400080002800200022B8640240A9
:105A600038530108585301087053010800100140D1
:105A70000004024010B58CB008200121FCF7A6FA02
:105A80004FF400300121FCF7BFFA474B0B93102075
:105A900006F0B6F80446FA230093204643494FF037
:105AA0000062434BFDF7FEFF0B9B1C60242006F0B9
:105AB000A7F804463E4B00933E4B01933E4B0293A6
:105AC0004FF48063039320463C494FF0006211235A
:105AD000FEF7C8F80B9B5C600B9B1B68002B05D185
